:03000000020DD717
:0C0DD700787FE4F6D8FD75811A020E1E2C
:051003000000000000E8
:080FCE000613C9E3CACFB6C83F
:100F8D00120FBC120F517F88120FDB7F43120FE738
:080F9D00120FA5120C4C80F8A4
:040C4C008E088F0976
:100C5000780A7C007D007BFF7A1079037E007F0597
:100C6000120B8DC3E5086480948050227F80120FA0
:100C7000DB75992D3099FDC2997F2D120FE7E5099B
:100C80001509700215086309FF6308FF80127F8051
:100C9000120FDB7F2B120FE775992B3099FDC2994C
:100CA000AC08AD09EC120A038F128E118D108C0F57
:100CB000E4FFFE7DC87C40AB12AA11A910A80F1258
:100CC00008F8E4FBFAF9783F120807120A3C8E088C
:100CD0008F09AE08AF097C277D10120BB38F0AAEC7
:100CE00008AF097C277D10120BB37E037FE8CFCDC0
:100CF000CFCECCCE120BB38F0BAE08AF097C037DE9
:100D0000E8120BB37E007F64CFCDCFCECCCE120BDA
:100D1000B38F0CAE08AF097C007D64120BB37E006C
:100D20007F0ACFCDCFCECCCE120BB38F0DAE08AF96
:100D3000097C007D0A120BB38D0E7F82120FDBE55A
:100D40000A2430FF120FE7E50A2430F5993099FDA7
:100D5000C2997F83120FDBE50B2430FF120FE7E50A
:100D60000B2430F5993099FDC2997F84120FDBE591
:100D70000C2430FF120FE7E50C2430F5993099FD73
:100D8000C2997F85120FDB7F2E120FE775992E30E7
:100D900099FDC2997F86120FDBE50D2430FF120FFB
:100DA000E7E50D2430F5993099FDC2997F87120F40
:100DB000DBE50E2430FF120FE7E50E2430F5993005
:100DC00099FDC299E4FF74132FF8E6F5993099FD67
:060DD000C2990FBF06F0FE
:010DD60022FA
:100FBC00759850758920758780758DF3758BF3D274
:020FCC008E2273
:100E6300C2A58B807F017E00120E8CD2A77F057EE8
:100E730000120E8CC2A7EBC454F0F5807F017E00F4
:090E8300120E8CD2A77F057E003F
:100E8C00D3EF9400EE9400400F7DC77C01DCFEDDB7
:080E9C00FAEF1F70EB1E80E865
:010EA400222B
:0C0FDB00AB07C2A7C2A6120E63C2A72279
:0C0FE700AB07C2A7D2A6120E63C2A7225D
:100F51007F32120FDB7F28120FDB7F0C120FDB7F3A
:0E0F610006120FDB7F01120FDB7F80020FDB19
:040FD6000219001CE0
:100F6F00D3EF9400EE940040147D6E7C00ED1D7065
:0D0F7F00011CED4C70F7EF1F70E61E80E3C3
:010F8C002242
:100F2500C2A37F467E00EF1FAC0670011E4C70F613
:100F3500D2A3E4FEFF30A3110FBF00010ED3EF943F
:0B0F450088EE941340EF7F00227F0134
:010F5000227E
:0C0EA500120F257F017E00120F6F7FCC22
:100EB100E4FBFAC2A3050AE50A70020509EF1392E1
:100EC100A3750900750A06E50A150AAC0970021531
:100ED100094C70F3D2A3EFC313FF0BBB00010AEB64
:050EE10064084A70CE18
:010EE60022E9
:100EE7007D087C00C2A30FBF0000D2A30FBF000084
:100EF7000FBF0000A2A3E433C43333335480FBE9AC
:100F0700C3134BF97E007F04EF1FAA0670011E4A28
:0D0F170070F6ED1D70011CED4C70C9AF01AE
:010F240022AA
:080FF300120EA57F44020EB1AD
:080FFB00120EA57FBE020EB12B
:100FA500E4FFFE120FF3120FFB120EE78F08120E6D
:060FB500E7EFFEE508FF76
:010FBB002213
:10080000020AA8E86480F8E933E83360110460F074
:10081000ED33EC337009E8FCE9FDEAFEEBFF22045E
:1008200060DED3EB9FEA9EE99DE8C2E78CF0C2F759
:1008300095F0400CE8CCF8E9CDF9EACEFAEBCFFB25
:10084000120A7385D0F05804700320D5B3E8047001
:10085000075002B2D5020AB292D5EC0460F7E4CC9C
:10086000C0E0C398F8603B94186008400DD0E0FBEE
:10087000020A8AE4FBFAC9FC8028E830E406E4C9ED
:10088000FBE4CAFCE830E305E4C9CACBFCE8540742
:100890006010F8C3E913F9EA13FAEB13FBEC13FC4D
:1008A000D8F130F52FC3E49CFCEF9BFFEE9AFEEDF0
:1008B00099FDD0E0FBEF4E4D4C701222DB03020A93
:1008C000AFEC2CFCEF33FFEE33FEED33FDED30E704
:1008D000EB020A8AEF2BFFEE3AFEED39FDD0E0FB8A
:1008E00050130BBB0003020AB2ED13FDEE13FEEF33
:0808F00013FFEC13FC020A8A5D
:1008F800EC4D6011E8497017ED33EC3304600DE4FA
:10090800FCFFFEFD22E933E8330470F8020AA8125E
:100918000A7358046009E4CC24815006285009025F
:100928000AB2284003020AAFC0E0EB4A7044B9801B
:1009380006D0E0FB020A9EEF4E701CBD8008EBFF5C
:10094800EAFEE9FD80EBE98DF0A4FEE5F00209E19D
:10095800E9CDF9EAFEEBFFEF89F0A4FCE5F0CE89DA
:10096800F0A42EFFE435F0CD89F0A42DFEE435F097
:100978008067EF4E7005BD80D780C3EF8BF0A4ACC5
:10098800F0EE8BF0A42CFCE435F0F8EF8AF0A42C00
:10099800E5F038FCE433CB8DF0A42CFCE5F03BF813
:1009A800EE8AF0A42CFCE5F038F8E433CF89F0A403
:1009B8002CFCE5F038CF3400CE89F0A42FFFE5F009
:1009C8003EFEE433C98DF0A42EFEE5F039CD8AF061
:1009D800A42FFFE5F03EFEE43DFD33D0E0FB5007D9
:1009E8000BBB000F020AB2EC2CFCEF33FFEE33FE18
:0609F800ED33FD020A8A46
:1009FE0075F020800E75F010800575F0087D007E74
:100A0E00007F003392D530D503120BE9EC33401042
:100A1E00EF33FFEE33FEED33FDEC33FCD5F0ED227C
:0E0A2E00E5F0247EA2D513CC92E7CDCEFF22B8
:100A3C00EDD2E7CD33EC3392D524814006E4FFFEB2
:100A4C00FDFC22FCE4CFCECDCC24E0501174FF8011
:100A5C00EDC3CC13CCCD13CDCE13CECF13CF0470AE
:070A6C00F030D5DE020BE9BA
:100A7300E9D2E7C933E833F892D5EDD2E7CD33ECC9
:070A830033FC5002B2D52242
:100A8A00EC30E7100FBF000C0EBE00080DBD0004CD
:100A9A000BEB6014A2D5EB13FCED92E7FD2274FF79
:100AAA00FCFDFEFF22E480F8A2D574FF13FC7D80D2
:030ABA00E480EFE6
:100DE300020F8DE493A3F8E493A34003F68001F28A
:100DF30008DFF48029E493A3F85407240CC8C33311
:100E0300C4540F4420C8834004F456800146F6DFDF
:100E1300E4800B0102040810204080900FCEE47E92
:100E2300019360BCA3FF543F30E509541FFEE493D4
:100E3300A360010ECF54C025E060A840B8E493A39B
:100E4300FAE493A3F8E493A3C8C582C8CAC583CAC6
:100E5300F0A3C8C582C8CAC583CADFE9DEE780BE7E
:010FDA000016
:100ABD00E709F608DFFA8046E709F208DFFA803E1B
:100ACD0088828C83E709F0A3DFFA8032E309F60808
:100ADD00DFFA8078E309F208DFFA807088828C8370
:100AED00E309F0A3DFFA806489828A83E0A3F60824
:100AFD00DFFA805889828A83E0A3F208DFFA804CFE
:100B0D0080D280FA80C680D4806980F280338010D4
:100B1D0080A680EA809A80A880DA80E280CA80333D
:100B2D0089828A83ECFAE493A3C8C582C8CCC583B5
:100B3D00CCF0A3C8C582C8CCC583CCDFE9DEE78085
:100B4D000D89828A83E493A3F608DFF9ECFAA9F004
:100B5D00EDFB2289828A83ECFAE0A3C8C582C8CC5A
:100B6D00C583CCF0A3C8C582C8CCC583CCDFEADE73
:100B7D00E880DB89828A83E493A3F208DFF980CCD5
:100B8D0088F0EF60010E4E60C388F0ED2402B404CE
:100B9D000050B9F582EB2402B4040050AF23234575
:060BAD008223900B0D7382
:100BB300C2D5EC30E709B2D5E4C39DFDE49CFCEE5D
:100BC30030E715B2D5E4C39FFFE49EFE120BF7C3D3
:100BD300E49DFDE49CFC8003120BF730D507C3E4CE
:060BE3009FFFE49EFE22CC
:0E0BE900C3E49FFFE49EFEE49DFDE49CFC221D
:100BF700BC000BBE0029EF8DF084FFADF022E4CCE2
:100C0700F875F008EF2FFFEE33FEEC33FCEE9DECAA
:100C1700984005FCEE9DFE0FD5F0E9E4CEFD22EDF0
:100C2700F8F5F0EE8420D21CFEADF075F008EF2F3A
:100C3700FFED33FD4007985006D5F0F222C398FD2B
:050C47000FD5F0EA22C8
:00000001FF
