:03000000020E12DB
:0C0E1200787FE4F6D8FD758120020E59AF
:0710F80000000000000000F1
:0C10BF000217000C0619C9E3CACFB6C81E
:10108D001210517F881210D07F431210DC120F15F1
:0B109D00120E9E1210A8120C4C80F2E4
:100E9E0075150075160130B0337F0A7E00120F8C67
:100EAE0030B0080518E51870020517C3E51694F45E
:100EBE00E51564809481501430B0117F017E0012CC
:100ECE000F8C0516E51670E3051580DF30B1337F04
:100EDE000A7E00120F8C30B108E518151870021535
:100EEE0017C3E51694F4E51564809481501430B15F
:100EFE00117F017E00120F8C0516E51670E30515A5
:060F0E0080DFAE17AF18F2
:010F140022BA
:100F15001210A8AC06AD07EC120A038F0B8E0A8DD2
:100F2500098C08E4FFFE7D807C3DAB0BAA0AA9096C
:100F3500A8081208F8E4FBFAF9783F1208078F0BA6
:100F45008E0A8D098C08120A3CD3EF9518E51764B3
:0D0F550080F8EE6480984003D29022C29094
:010F6200226C
:040C4C008E088F0976
:100C5000780A7C007D007BFF7A1079F87E007F07A0
:100C6000120B8DC3E5086480948050227F8012109F
:100C7000D075992D3099FDC2997F2D1210DCE509B0
:100C80001509700215086309FF6308FF80127F8051
:100C90001210D07F2B1210DC75992B3099FDC29960
:100CA000AC08AD09EC120A038F148E138D128C114F
:100CB000E4FFFE7DC87C40AB14AA13A912A8111250
:100CC00008F8E4FBFAF9783F120807120A3C8E088C
:100CD0008F09120E9EAB07AA06AE08AF097C277DCE
:100CE00010120BB38F0AAE08AF097C277D10120BD0
:100CF000B37E037FE8CFCDCFCECCCE120BB38F0B1C
:100D0000AE08AF097C037DE8120BB37E007F64CF91
:100D1000CDCFCECCCE120BB38F0CAE08AF097C007A
:100D20007D64120BB37E007F0ACFCDCFCECCCE1226
:100D30000BB38F0DAE08AF097C007D0A120BB38D8B
:100D40000E7C007D0AAF03AE02120BB38F0FAE0212
:100D5000AF037C007D0A120BB38D107F821210D07E
:100D6000E50A2430FF1210DCE50A2430F5993099A9
:100D7000FDC2997F831210D0E50B2430FF1210DCE6
:100D8000E50B2430F5993099FDC2997F841210D07B
:100D9000E50C2430FF1210DCE50C2430F599309975
:100DA000FDC2997F851210D07F2E1210DC75992E0E
:100DB0003099FDC2997F861210D0E50D2430FF12C4
:100DC00010DCE50D2430F5993099FDC2997F87122A
:100DD00010D0E50E2430FF1210DCE50E2430F5991A
:100DE0003099FDC2997F891210D0E50F2430FF128F
:100DF00010DC7F901210D0E5102430FF1210DCE4DC
:100E0000FF74192FF8E6F5993099FDC2990FBF06C6
:010E1000F0F1
:010E110022BE
:100F6300C2A58B807F017E00120F8CD2A77F057EE6
:100F730000120F8CC2A7EBC454F0F5807F017E00F2
:090F8300120F8CD2A77F057E003D
:100F8C00D3EF9400EE9400400F7DC77C01DCFEDDB6
:080F9C00FAEF1F70EB1E80E864
:010FA400222A
:0C10D000AB07C2A7C2A6120F63C2A72282
:0C10DC00AB07C2A7D2A6120F63C2A72266
:101051007F321210D07F281210D07F0C1210D07F57
:0E106100061210D07F011210D07F800210D036
:0410CB00021F001CE4
:10106F00D3EF9400EE940040147D6E7C00ED1D7064
:0D107F00011CED4C70F7EF1F70E61E80E3C2
:01108C002241
:10102500C2A37F467E00EF1FAC0670011E4C70F612
:10103500D2A3E4FEFF30A3110FBF00010ED3EF943E
:0B10450088EE941340EF7F00227F0133
:01105000227D
:0C0FA5001210257F017E0012106F7FCC1F
:100FB100E4FBFAC2A3050EE50E7002050DEF1392D4
:100FC100A3750D00750E06E50E150EAC0D7002151C
:100FD1000D4C70F3D2A3EFC313FF0BBB00010AEB5F
:050FE10064084A70CE17
:010FE60022E8
:100FE7007D087C00C2A30FBF0000D2A30FBF000083
:100FF7000FBF0000A2A3E433C43333335480FBE9AB
:10100700C3134BF97E007F04EF1FAA0670011E4A27
:0D10170070F6ED1D70011CED4C70C9AF01AD
:0110240022A9
:0810E800120FA57F44020FB1B5
:0810F000120FA57FBE020FB133
:1010A800E4FFFE1210E81210F0120FE78F0C120F77
:0610B800E7EFFEE50CFF6E
:0110BE00220F
:10080000020AA8E86480F8E933E83360110460F074
:10081000ED33EC337009E8FCE9FDEAFEEBFF22045E
:1008200060DED3EB9FEA9EE99DE8C2E78CF0C2F759
:1008300095F0400CE8CCF8E9CDF9EACEFAEBCFFB25
:10084000120A7385D0F05804700320D5B3E8047001
:10085000075002B2D5020AB292D5EC0460F7E4CC9C
:10086000C0E0C398F8603B94186008400DD0E0FBEE
:10087000020A8AE4FBFAC9FC8028E830E406E4C9ED
:10088000FBE4CAFCE830E305E4C9CACBFCE8540742
:100890006010F8C3E913F9EA13FAEB13FBEC13FC4D
:1008A000D8F130F52FC3E49CFCEF9BFFEE9AFEEDF0
:1008B00099FDD0E0FBEF4E4D4C701222DB03020A93
:1008C000AFEC2CFCEF33FFEE33FEED33FDED30E704
:1008D000EB020A8AEF2BFFEE3AFEED39FDD0E0FB8A
:1008E00050130BBB0003020AB2ED13FDEE13FEEF33
:0808F00013FFEC13FC020A8A5D
:1008F800EC4D6011E8497017ED33EC3304600DE4FA
:10090800FCFFFEFD22E933E8330470F8020AA8125E
:100918000A7358046009E4CC24815006285009025F
:100928000AB2284003020AAFC0E0EB4A7044B9801B
:1009380006D0E0FB020A9EEF4E701CBD8008EBFF5C
:10094800EAFEE9FD80EBE98DF0A4FEE5F00209E19D
:10095800E9CDF9EAFEEBFFEF89F0A4FCE5F0CE89DA
:10096800F0A42EFFE435F0CD89F0A42DFEE435F097
:100978008067EF4E7005BD80D780C3EF8BF0A4ACC5
:10098800F0EE8BF0A42CFCE435F0F8EF8AF0A42C00
:10099800E5F038FCE433CB8DF0A42CFCE5F03BF813
:1009A800EE8AF0A42CFCE5F038F8E433CF89F0A403
:1009B8002CFCE5F038CF3400CE89F0A42FFFE5F009
:1009C8003EFEE433C98DF0A42EFEE5F039CD8AF061
:1009D800A42FFFE5F03EFEE43DFD33D0E0FB5007D9
:1009E8000BBB000F020AB2EC2CFCEF33FFEE33FE18
:0609F800ED33FD020A8A46
:1009FE0075F020800E75F010800575F0087D007E74
:100A0E00007F003392D530D503120BE9EC33401042
:100A1E00EF33FFEE33FEED33FDEC33FCD5F0ED227C
:0E0A2E00E5F0247EA2D513CC92E7CDCEFF22B8
:100A3C00EDD2E7CD33EC3392D524814006E4FFFEB2
:100A4C00FDFC22FCE4CFCECDCC24E0501174FF8011
:100A5C00EDC3CC13CCCD13CDCE13CECF13CF0470AE
:070A6C00F030D5DE020BE9BA
:100A7300E9D2E7C933E833F892D5EDD2E7CD33ECC9
:070A830033FC5002B2D52242
:100A8A00EC30E7100FBF000C0EBE00080DBD0004CD
:100A9A000BEB6014A2D5EB13FCED92E7FD2274FF79
:100AAA00FCFDFEFF22E480F8A2D574FF13FC7D80D2
:030ABA00E480EFE6
:100E1E0002108DE493A3F8E493A34003F68001F24D
:100E2E0008DFF48029E493A3F85407240CC8C333D5
:100E3E00C4540F4420C8834004F456800146F6DFA4
:100E4E00E4800B01020408102040809010BFE47E65
:100E5E00019360BCA3FF543F30E509541FFEE49399
:100E6E00A360010ECF54C025E060A840B8E493A360
:100E7E00FAE493A3F8E493A3C8C582C8CAC583CA8B
:100E8E00F0A3C8C582C8CAC583CADFE9DEE780BE43
:0110CF000020
:100ABD00E709F608DFFA8046E709F208DFFA803E1B
:100ACD0088828C83E709F0A3DFFA8032E309F60808
:100ADD00DFFA8078E309F208DFFA807088828C8370
:100AED00E309F0A3DFFA806489828A83E0A3F60824
:100AFD00DFFA805889828A83E0A3F208DFFA804CFE
:100B0D0080D280FA80C680D4806980F280338010D4
:100B1D0080A680EA809A80A880DA80E280CA80333D
:100B2D0089828A83ECFAE493A3C8C582C8CCC583B5
:100B3D00CCF0A3C8C582C8CCC583CCDFE9DEE78085
:100B4D000D89828A83E493A3F608DFF9ECFAA9F004
:100B5D00EDFB2289828A83ECFAE0A3C8C582C8CC5A
:100B6D00C583CCF0A3C8C582C8CCC583CCDFEADE73
:100B7D00E880DB89828A83E493A3F208DFF980CCD5
:100B8D0088F0EF60010E4E60C388F0ED2402B404CE
:100B9D000050B9F582EB2402B4040050AF23234575
:060BAD008223900B0D7382
:100BB300C2D5EC30E709B2D5E4C39DFDE49CFCEE5D
:100BC30030E715B2D5E4C39FFFE49EFE120BF7C3D3
:100BD300E49DFDE49CFC8003120BF730D507C3E4CE
:060BE3009FFFE49EFE22CC
:0E0BE900C3E49FFFE49EFEE49DFDE49CFC221D
:100BF700BC000BBE0029EF8DF084FFADF022E4CCE2
:100C0700F875F008EF2FFFEE33FEEC33FCEE9DECAA
:100C1700984005FCEE9DFE0FD5F0E9E4CEFD22EDF0
:100C2700F8F5F0EE8420D21CFEADF075F008EF2F3A
:100C3700FFED33FD4007985006D5F0F222C398FD2B
:050C47000FD5F0EA22C8
:00000001FF
