:03000000020D7579
:0C0D7500787FE4F6D8FD758116020DBCF5
:05106700000000000084
:041062000215000C67
:0D0ECD0012100E7F8812103E7F4312104855
:100EDA00120E78120E018E088F097F8A12103EAE0A
:100EEA0008AF097C007D0A120BB3EF2430FF121001
:100EFA00487F8B12103EAE08AF097C007D0A120BA8
:0E0F0A00B3ED2430FF121048121027120C4CC9
:020F180080C097
:100E0100750A00750B0130B0337F0A7E00120FD7CF
:100E110030B0080516E51670020515C3E50B94F40C
:100E2100E50A64809481501430B0117F017E001274
:100E31000FD7050BE50B70E3050A80DF30B1337F77
:100E41000A7E00120FD730B108E51615167002158B
:100E510015C3E50B94F4E50A64809481501430B114
:100E6100117F017E00120FD7050BE50B70E3050A18
:060E710080DFAE15AF1694
:010E77002258
:100E7800121027C3EE64809480500DEF1F70011E7E
:100E88006307FF6306FF8000AD07AC06EC120A0398
:100E9800E4FBFA7980783D1208F8120A3CC3EF9512
:100EA80016E5156480F8EE6480985002C290C3EF8E
:100EB8009516FFEE9515FED3EF9403EE64809480AB
:040EC8004002D29082
:010ECC002203
:040C4C008E0A8F0B72
:100C5000780C7C007D007BFF7A1079677E007F0531
:100C6000120B8DC3E50A64809480501A7F801210A5
:100C70003E7F2D121048E50B150B7002150A630B11
:100C8000FF630AFF800A7F8012103E7F2B121048FC
:100C9000AC0AAD0BEC120A038F148E138D128C115B
:100CA000E4FFFE7DC87C40AB14AA13A912A8111260
:100CB00008F8E4FBFAF9783F120807120A3C8E0A9A
:100CC0008F0BAE0AAF0B7C277D10120BB38F0CAECF
:100CD0000AAF0B7C277D10120BB37E037FE8CFCDCC
:100CE000CFCECCCE120BB38F0DAE0AAF0B7C037DF3
:100CF000E8120BB37E007F64CFCDCFCECCCE120BEB
:100D0000B38F0EAE0AAF0B7C007D64120BB37E0076
:100D10007F0ACFCDCFCECCCE120BB38F0FAE0AAFA2
:100D20000B7C007D0A120BB38D107F8212103EE502
:100D30000C2430FF1210487F8312103EE50D243042
:100D4000FF1210487F8412103EE50E2430FF12106F
:100D5000487F8512103E7F2E1210487F8612103E6B
:100D6000E50F2430FF1210487F8712103EE5102453
:050D700030FF021048F5
:100FC600C2A58F807F017E00120FD7D2A77F057E34
:010FD600001A
:100FD700D3EF9400EE9400400F7DC77C01DCFEDD6B
:080FE700FAEF1F70EB1E80E819
:010FEF0022DF
:0A103E00C2A7C2A6120FC6C2A72265
:0A104800C2A7D2A6120FC6C2A7224B
:10100E007F3812103E7F0C12103E7F0612103E7F6C
:09101E000112103E7F8002103E19
:100FF000D3EF9400EE940040147D6E7C00ED1D70E4
:0D100000011CED4C70F7EF1F70E61E80E341
:01100D0022C0
:100F9A00C2A37F467E00EF1FAC0670011E4C70F69E
:100FAA00D2A3E4FEFF30A3110FBF00010ED3EF94CA
:0B0FBA0088EE941340EF7F00227F01BF
:010FC5002209
:0C0F1A00120F9A7F017E00120FF07FCCB6
:100F2600E4FBFAC2A3050CE50C7002050BEF139265
:100F3600A3750B00750C06E50C150CAC0B700215B1
:100F46000B4C70F3D2A3EFC313FF0BBB00010AEBEC
:050F560064084A70CEA2
:010F5B002273
:100F5C007D087C00C2A30FBF0000D2A30FBF00000E
:100F6C000FBF0000A2A3E433C43333335480FBE936
:100F7C00C3134BF97E007F04EF1FAA0670011E4AB3
:0D0F8C0070F6ED1D70011CED4C70C9AF0139
:010F99002235
:08105200120F1A7F44020F2661
:08105A00120F1A7FBE020F26DF
:10102700E4FFFE12105212105A120F5C8F0A120FB1
:061037005CEFFEE50AFF7C
:01103D002290
:10080000020AA8E86480F8E933E83360110460F074
:10081000ED33EC337009E8FCE9FDEAFEEBFF22045E
:1008200060DED3EB9FEA9EE99DE8C2E78CF0C2F759
:1008300095F0400CE8CCF8E9CDF9EACEFAEBCFFB25
:10084000120A7385D0F05804700320D5B3E8047001
:10085000075002B2D5020AB292D5EC0460F7E4CC9C
:10086000C0E0C398F8603B94186008400DD0E0FBEE
:10087000020A8AE4FBFAC9FC8028E830E406E4C9ED
:10088000FBE4CAFCE830E305E4C9CACBFCE8540742
:100890006010F8C3E913F9EA13FAEB13FBEC13FC4D
:1008A000D8F130F52FC3E49CFCEF9BFFEE9AFEEDF0
:1008B00099FDD0E0FBEF4E4D4C701222DB03020A93
:1008C000AFEC2CFCEF33FFEE33FEED33FDED30E704
:1008D000EB020A8AEF2BFFEE3AFEED39FDD0E0FB8A
:1008E00050130BBB0003020AB2ED13FDEE13FEEF33
:0808F00013FFEC13FC020A8A5D
:1008F800EC4D6011E8497017ED33EC3304600DE4FA
:10090800FCFFFEFD22E933E8330470F8020AA8125E
:100918000A7358046009E4CC24815006285009025F
:100928000AB2284003020AAFC0E0EB4A7044B9801B
:1009380006D0E0FB020A9EEF4E701CBD8008EBFF5C
:10094800EAFEE9FD80EBE98DF0A4FEE5F00209E19D
:10095800E9CDF9EAFEEBFFEF89F0A4FCE5F0CE89DA
:10096800F0A42EFFE435F0CD89F0A42DFEE435F097
:100978008067EF4E7005BD80D780C3EF8BF0A4ACC5
:10098800F0EE8BF0A42CFCE435F0F8EF8AF0A42C00
:10099800E5F038FCE433CB8DF0A42CFCE5F03BF813
:1009A800EE8AF0A42CFCE5F038F8E433CF89F0A403
:1009B8002CFCE5F038CF3400CE89F0A42FFFE5F009
:1009C8003EFEE433C98DF0A42EFEE5F039CD8AF061
:1009D800A42FFFE5F03EFEE43DFD33D0E0FB5007D9
:1009E8000BBB000F020AB2EC2CFCEF33FFEE33FE18
:0609F800ED33FD020A8A46
:1009FE0075F020800E75F010800575F0087D007E74
:100A0E00007F003392D530D503120BE9EC33401042
:100A1E00EF33FFEE33FEED33FDEC33FCD5F0ED227C
:0E0A2E00E5F0247EA2D513CC92E7CDCEFF22B8
:100A3C00EDD2E7CD33EC3392D524814006E4FFFEB2
:100A4C00FDFC22FCE4CFCECDCC24E0501174FF8011
:100A5C00EDC3CC13CCCD13CDCE13CECF13CF0470AE
:070A6C00F030D5DE020BE9BA
:100A7300E9D2E7C933E833F892D5EDD2E7CD33ECC9
:070A830033FC5002B2D52242
:100A8A00EC30E7100FBF000C0EBE00080DBD0004CD
:100A9A000BEB6014A2D5EB13FCED92E7FD2274FF79
:100AAA00FCFDFEFF22E480F8A2D574FF13FC7D80D2
:030ABA00E480EFE6
:100D8100020ECDE493A3F8E493A34003F68001F2AD
:100D910008DFF48029E493A3F85407240CC8C33373
:100DA100C4540F4420C8834004F456800146F6DF42
:100DB100E4800B0102040810204080901062E47E60
:100DC100019360BCA3FF543F30E509541FFEE49337
:100DD100A360010ECF54C025E060A840B8E493A3FE
:100DE100FAE493A3F8E493A3C8C582C8CAC583CA29
:100DF100F0A3C8C582C8CAC583CADFE9DEE780BEE1
:011066000089
:100ABD00E709F608DFFA8046E709F208DFFA803E1B
:100ACD0088828C83E709F0A3DFFA8032E309F60808
:100ADD00DFFA8078E309F208DFFA807088828C8370
:100AED00E309F0A3DFFA806489828A83E0A3F60824
:100AFD00DFFA805889828A83E0A3F208DFFA804CFE
:100B0D0080D280FA80C680D4806980F280338010D4
:100B1D0080A680EA809A80A880DA80E280CA80333D
:100B2D0089828A83ECFAE493A3C8C582C8CCC583B5
:100B3D00CCF0A3C8C582C8CCC583CCDFE9DEE78085
:100B4D000D89828A83E493A3F608DFF9ECFAA9F004
:100B5D00EDFB2289828A83ECFAE0A3C8C582C8CC5A
:100B6D00C583CCF0A3C8C582C8CCC583CCDFEADE73
:100B7D00E880DB89828A83E493A3F208DFF980CCD5
:100B8D0088F0EF60010E4E60C388F0ED2402B404CE
:100B9D000050B9F582EB2402B4040050AF23234575
:060BAD008223900B0D7382
:100BB300C2D5EC30E709B2D5E4C39DFDE49CFCEE5D
:100BC30030E715B2D5E4C39FFFE49EFE120BF7C3D3
:100BD300E49DFDE49CFC8003120BF730D507C3E4CE
:060BE3009FFFE49EFE22CC
:0E0BE900C3E49FFFE49EFEE49DFDE49CFC221D
:100BF700BC000BBE0029EF8DF084FFADF022E4CCE2
:100C0700F875F008EF2FFFEE33FEEC33FCEE9DECAA
:100C1700984005FCEE9DFE0FD5F0E9E4CEFD22EDF0
:100C2700F8F5F0EE8420D21CFEADF075F008EF2F3A
:100C3700FFED33FD4007985006D5F0F222C398FD2B
:050C47000FD5F0EA22C8
:00000001FF
